:020000040800F2
:10000000101B0024810300082D67000873560008A8
:10001000415E0008AD160008CD9000080000000009
:10002000000000000000000000000000EB76000867
:100030006D190008000000002F670008657C0008AB
:100040009B0300089B0300089B0300089B03000818
:100050009B0300089B0300089B0300089B03000808
:100060009B0300089B0300089B0300089B030008F8
:10007000CD160008DD160008ED160008FD16000874
:100080009B0300089B0300089B0300089B030008D8
:100090009B0300089B0300089B0300089B030008C8
:1000A0009B0300089B0300089B0300089B030008B8
:1000B000017D0008D57D00089B0300089B03000814
:1000C0009B0300089B0300089B0300089B03000898
:1000D0009B030008499000089B03000879900008E2
:1000E0009B0300089B030008000000009B0300081E
:1000F0009B0300089B0300089B0300089B03000868
:100100009B0300089B0300089B0300089B03000857
:10011000A18200089B0300089B0300089B030008C2
:100120009B0300089B0300089B0300089B03000837
:100130009B0300089B0300089B0300089B03000827
:1001400000000000000000000000000000000000AF
:100150009B0300089B0300089B0300089B03000807
:100160009B0300089B0300089B0300089B030008F7
:100170009B0300089B0300089B030008000000008D
:100180009B0300089B0300089B0300089B030008D7
:100190009B0300089B0300089B0300089B030008C7
:1001A0009B0300089B0300089B0300089B030008B7
:1001B0009B0300089B0300089B0300089B030008A7
:1001C0009B0300089B0300089B0300089B03000897
:1001D0009B0300089B0300089B0300089B03000887
:1001E0009B0300089B0300089B0300089B03000877
:1001F0009B0300089B0300089B0300089B03000867
:100200009B0300089B0300089B0300089B03000856
:100210009B0300089B0300089B0300089B03000846
:100220009B0300089B0300089B03000800000000DC
:100230009B0300089B030008000000009B030008CC
:100240009B0300089B0300089B0300089B03000816
:100250009B0300089B0300089B0300089B03000806
:100260009B0300089B0300089B0300089B030008F6
:100270009B0300089B0300089B030008000000008C
:100280009B030008000000009B0300080000000022
:10029000000000009B03000800F002F800F061F885
:1002A0000AA090E8000C82448344AAF10107DA45D1
:1002B00001D100F056F8AFF2090EBAE80F0013F0C2
:1002C000010F18BFFB1A43F00103184754A40000A4
:1002D00074A400000A444FF0000C10F8013B13F026
:1002E000070408BF10F8014B1D1108BF10F8015B8F
:1002F000641E05D010F8016B641E01F8016BF9D182
:1003000013F0080F1EBF10F8014BAD1C0C1B09D1D8
:100310006D1E58BF01F801CBFAD505E014F8016B4A
:1003200001F8016B6D1EF9D59142D6D370470000DC
:100330000023002400250026103A28BF78C1FBD8EE
:10034000520728BF30C148BF0B607047642900F0D6
:10035000EF80002070471FB50AF04EF81FBD10B5A2
:1003600010BD00F047FA1146FFF7F5FF09F032FF24
:1003700000F065FA03B4FFF7F2FF03BC09F058FE82
:100380000948804709480047FEE7FEE7FEE7FEE729
:10039000FEE7FEE7FEE7FEE7FEE7FEE70448054965
:1003A000054A064B704700006D7C00089902000862
:1003B00010150024101B002410170024101700240F
:1003C00053EA020C00F069802DE9F04B4FF0000673
:1003D000002B1FBFB3FA83F503FA05F424FA05F6E0
:1003E0005E4012BF1643B2FA82F502FA05F4C5F177
:1003F00020051EBF22FA05FC44EA0C04203556EA0B
:10040000044C4FEA144418BF641C4FF000084FF02E
:100410000009904271EB030C39D3002919BFB1FADE
:1004200081F701FA07F6B0FA80F700FA07F6C7F18C
:1004300020071EBF20FA07FC46EA0C062037B6FB51
:10044000F4FCA7EB0507103F07F01F0BCBF12006CC
:100450000CFA0BFB2CFA06F644BFB3460026202FFD
:10046000A4BF5E464FF0000B5BEA060C08BF4FF0DE
:10047000010B19EB0B09ABFB027C48EB0608C01B18
:1004800006FB02CC0BFB03CC71EB0C01C1E70B4666
:10049000024641464846BDE8F08B13B54FF00000D8
:1004A0004FF00001AFF30080BDE81C407047000032
:1004B0000FB4044910B503AA029800F065F910BC06
:1004C0005DF814FB580100242DE9F0410E46044666
:1004D000002020622046E168884730B3252805D0F7
:1004E000D4E901219047206A401CF2E7E1682046E8
:1004F00000278847050018D0A5F14100192802D827
:1005000020354FF400673246294620462760FFF722
:100510001DFF40B1012804D0F61D26F0070608365D
:10052000D8E7361DD6E72846DAE7206ABDE8F0812D
:100530002DE9F0410646002410687529314616A5BC
:1005400010D0AFF30080002802DA404213A507E084
:1005500031688A0701D512A502E0490704D511A523
:10056000012401E0AFF3008000210A2206F12407F4
:1005700009E0B0FBF2FCB0FBF2F302FB1C003030F0
:1005800078541846491C0028F3D123462A463046A1
:10059000BDE8F04100F09FB8000000002D00000011
:1005A0002B0000002000000030B505460B462A460F
:1005B00013F8014B12F8010B08B1A042F8D01CB19E
:1005C000002802D06D1CF1E7284630BD032A40F216
:1005D000308010F0030C00F0158011F8013BBCF1E5
:1005E000020F624498BF11F801CB00F8013B38BFFD
:1005F00011F8013BA2F1040298BF00F801CB38BF0B
:1006000000F8013B11F0030300F02580083AC0F028
:10061000088051F8043B083A51F804CBA0E80810D0
:10062000F5E7121D5CBF51F8043B40F8043BAFF303
:100630000080D20724BF11F8013B11F801CB48BF5D
:1006400011F8012B24BF00F8013B00F801CB48BF93
:1006500000F8012B704710B5203AC0F00B80B1E8CC
:100660001850203AA0E81850B1E81850A0E81850E7
:10067000BFF4F5AF5FEA027C24BFB1E81850A0E8F0
:10068000185044BF18C918C0BDE810405FEA827C0A
:1006900024BF51F8043B40F8043B08BF7047D20721
:1006A00028BF31F8023B48BF11F8012B28BF20F8C2
:1006B000023B48BF00F8012B7047704770477047F6
:1006C00010B500F073F8006810BD10B5044600F0D6
:1006D0006DF8046010BD2DE9F0470D46994692462D
:1006E000044600F124080168880604D5E06921F079
:1006F0001001216000E00120A84201DD471B00E05D
:100700000027A1697A1902EB0900081AA061207874
:10071000C00602D42046AFF30080002608E0D4E9EA
:1007200001211AF806009047206A401C761C2062BE
:100730004E45F4DB2078C0060AD52046AFF3008092
:1007400006E0D4E9012130209047206A401C206255
:10075000381EA7F10107F4DC07E0D4E9012118F8FD
:1007600005009047206A401C2062281EA5F1010563
:10077000F3DC2046AFF300802078000602D502208B
:10078000BDE8F0870120FBE7074B70B50D467B44C1
:1007900000F015F80446284600F024F810B14FF098
:1007A000FF3070BD204670BD3F9900000048704783
:1007B000B014002401694A1C02610878704700B532
:1007C0008FB0CDE901310021059105497944CDE98A
:1007D000031011466846FFF777FE0FB000BD00001A
:1007E000E5FFFFFF007B00F0800070470048704786
:1007F000B01400247546FFF7F9FFAE4605006946C0
:10080000534620F00700854618B020B5FFF7C6FD17
:10081000BDE820404FF000064FF000074FF0000801
:100820004FF0000B21F00701AC46ACE8C009ACE882
:10083000C009ACE8C009ACE8C0098D467047044661
:10084000AFF300802046FFF795FD000010B52DEDB9
:10085000088BFE480068E8BB0120FC4908609FED5A
:10086000FC0AFC4880ED000A9FEDF90A80ED010AC0
:100870009FEDF70A80ED020A9FEDF50AF64880ED3C
:10088000020A9FEDF30A80ED010A9FEDF10A80ED67
:10089000000A9FEDEF0A80ED050A9FEDED0A80ED5D
:1008A000040A9FEDEB0A80ED030A9FEDE90A80ED53
:1008B000080A9FEDE70A80ED070A9FEDE50A80ED43
:1008C000060A9FEDE30AE54880ED000A9FEDE00A85
:1008D000E34800E006E080ED000A9FEDDD0AE14814
:1008E00080ED000A06F034FBDF4890ED021AB7EE07
:1008F000C11AB0EE410B08F05BFFDC4890ED001A26
:10090000B7EEC11A20EE01BBD74890ED021AB7EE40
:10091000C11AB0EE410B08F0F3FED54890ED001A75
:10092000B7EEC11A01EE00BBB7EECB0BD14880ED9C
:10093000000ACD4890ED021AB7EEC11AB0EE410B95
:1009400008F0DEFEC94890ED001AB7EEC11A20EE9D
:1009500001BBC54890ED021AB7EEC11AB0EE410BCB
:1009600008F026FFC24890ED001AB7EEC11A01EE5A
:1009700040BBB7EECB0BC04880ED000ABF4890EDFE
:10098000000ABD48D0ED000A30EE200ABC4880EDD8
:10099000000ABC4890ED000AB648D0ED000A30EEDF
:1009A000600AB94880ED000AB848C088B849C988CB
:1009B000401A00EE100AB8EEC00ADFEDB60A80EE6B
:1009C000201AAF4880ED001AB0484088B0494988E5
:1009D000401A404200EE100AB8EEC00ADFEDAD0A40
:1009E00080EE201AA84880ED001AA8480088A8497F
:1009F0000988401A00EE100AB8EEC00ADFEDA60A18
:100A000080EE201AA54880ED001A9FEDA59ADFED33
:100A1000A59A9FEDA3AADFEDA3AA9FEDA18ADFED22
:100A2000A18A8D4890ED050A80ED080A90ED040A30
:100A300080ED070A90ED030A80ED060A90ED020AA8
:100A400080ED050A90ED010A80ED040A90ED000AA0
:100A500080ED030A844890ED020A9048D0ED000A28
:100A600030EEC00A7C4880ED020A7F4890ED010A12
:100A70008548D0ED000A30EEC00A774880ED010AC3
:100A8000794890ED000A7E48D0ED000A30EEC00AA9
:100A9000714880ED000A844890ED050A80ED080A4F
:100AA00090ED020A80ED050A804890ED020AD0ED33
:100AB000050A30EE200A7E48D0ED000A20EE200A1A
:100AC000DFED7C0A60EE200AB0EE001A80EE810AAB
:100AD000D0ED000A9FED771A20EE811AF0EE001A91
:100AE000C1EE210AB7EE001A70EEC10A6E4890ED11
:100AF000051A01EE600A6E48D0ED000A9FED6D1AEE
:100B000060EE810AB0EE001AC0EE811AF7EE000A1C
:100B100071EEA00A80EE201A634880ED021A90ED73
:100B2000020A5E48D0ED000A30EEC00A624880ED4D
:100B3000020A494890ED020AD0ED050A30EE600A3B
:100B4000F0EE000AB4EEE00AF1EE10FA08DD90EDE6
:100B5000020ADFED5A0A30EE600A80ED020A15E063
:100B60003D4890ED020AD0ED050A30EE600AF8EE3D
:100B7000000AB4EEE00AF1EE10FA07D290ED020A94
:100B8000DFED4E0A30EE200A80ED020A2F480068A1
:100B900040BB01202D4908602F4890ED010A80EDEF
:100BA000070A90ED000A80ED060A90ED010A80ED3B
:100BB000040A90ED000A80ED030A90ED010A404816
:100BC000D0ED000A20EE200A244880ED000A2248D9
:100BD00090ED000A3B48D0ED000A20EE200A2048A4
:100BE00080ED000A1C4890ED020ADFED370AB4EEF2
:100BF000E00AF1EE10FA07DD90ED020ADFED330AAC
:100C000030EE600A80ED020A134890ED020ADFED33
:100C1000300AB4EEE00AF1EE10FA07D290ED020AC3
:100C2000DFED2A0A30EE200A80ED020A0A4890ED34
:100C3000020AB7EEC00AB0EEC00B264890ED001ACB
:100C4000B7EEC11AB4EEC10B46E000001800002454
:100C500000000000E0020024EC0200241C0000243C
:100C6000200000242400002400040024300000247C
:100C70002C0000243400002438000024400000240C
:100C80004C0000243C000024480000249E02002464
:100C9000BE02002400401C4500007A44500000249D
:100CA0007C0A06BF7C0A063F10030024A003002430
:100CB000540000240AD7233B34030024C3F5C84062
:100CC000580000246800002466669640560EC9400D
:100CD000666696C08C000024F1EE10FA0BD2E6484E
:100CE000D0ED020AE54890ED000A1FED0E1A00EE65
:100CF000810A80ED000AE14890ED000AE048D0ED5D
:100D0000000AB4EEE00AF1EE10FA05DD90ED000AFB
:100D1000DA4880ED000A13E0D84890ED000AD84880
:100D2000D0ED000AF1EE600AB4EEE00AF1EE10FA3E
:100D300006D290ED000AB1EE400AD04880ED000ADC
:100D4000CD4890ED010AB4EEC90AF1EE10FA01D2D5
:100D500080ED019AC84890ED010AB4EEE90AF1EE7F
:100D600010FA01DDC0ED019AC34890ED000AB4EE1F
:100D7000CA0AF1EE10FA01D280ED00AABE4890ED49
:100D8000000AB4EEEA0AF1EE10FA01DDC0ED00AAA5
:100D9000B94890ED020AB4EEC80AF1EE10FA01D299
:100DA00080ED028AB44890ED020AB4EEE80AF1EE52
:100DB00010FA01DDC0ED028AB24890ED020AB4EEED
:100DC000C80AF1EE10FA02D2AB4880ED028AAD48B3
:100DD00090ED020AB4EEE80AF1EE10FA02DDA64840
:100DE000C0ED028AA848D0ED000AA84890ED000A9C
:100DF000B8EEC00A20EE800A5FED520A20EE200A0B
:100E0000A148D0ED000AB0EE001A01EE200A9F487A
:100E10000068400000EE900AF8EEE00A9C4890ED71
:100E2000001A00EE810A9448D0ED010A20EE200A53
:100E30009648D0ED000AB8EEE01A5FED621AF0EEC7
:100E4000000A41EE610A934890ED001A00EE810A13
:100E50008D4890ED001A8D48D0ED000AF8EEE00ABA
:100E600061EE200A1FED6D1A60EE810A864890ED52
:100E7000001AF0EE001A41EEC10A844800684000F2
:100E800001EE100AB8EEC11A8148D0ED001A41EE09
:100E9000610A794890ED041A01EE200A7D4880ED40
:100EA000000A7A4890ED000AF8EEC00A1FED7F1A9A
:100EB000B0EE000A00EE810A7648D0ED000A80EE1E
:100EC000801A80ED001A7448D0ED000A734890ED46
:100ED000000AB8EEC00A20EE800A5FED8A0A20EE12
:100EE000200A6D48D0ED000AB0EE001A01EE200A8B
:100EF0006A480068400000EE900AF8EEE00A684890
:100F000090ED001A00EE810A5B48D0ED000A20EE59
:100F1000200A6248D0ED000AB8EEE01A5FED9B1A95
:100F2000F0EE000A41EE610A5E4890ED001A00EE14
:100F3000810A594890ED001A5848D0ED000AF8EEA1
:100F4000E00A61EE200A1FEDA51A60EE810A524800
:100F500090ED001AF0EE001A41EEC10A4F48006809
:100F6000400001EE100AB8EEC11A4D48D0ED001A4B
:100F700041EE610A404890ED031A01EE200A49480B
:100F800080ED000A454890ED000AF8EEC00A1FED1A
:100F9000B71AB0EE000A00EE810A4248D0ED000A0E
:100FA00080EE801A80ED001A3648D0ED020A3E48E5
:100FB00090ED000AB8EEC00A20EE800AF1EE000AB9
:100FC00080EE201A394880ED001A364890ED000A6C
:100FD000DFED370AB4EEE00AF1EE10FA03DD9FED23
:100FE000340A80ED000A2F4890ED000ADFED310A47
:100FF000B4EEE00AF1EE10FA03D29FED2E0A80ED76
:10100000000A244890ED000ADFED2B0AB4EEE00A56
:10101000F1EE10FA03DD9FED290A80ED000A1D486C
:1010200090ED000ADFED260AB4EEE00AF1EE10FAC8
:1010300003D29FED240A80ED000A1C4890ED000ABF
:10104000DFED1D0AB4EEE00AF1EE10FA03DD9FEDCC
:101050001E0A80ED000A154890ED000ADFED1B0A1C
:10106000B4EEE00AF1EE10FA03D29FED190A80ED1A
:10107000000ABDEC088B10BDEC020024880000249F
:10108000900000243403002458000024640000244D
:10109000600000241C000024680000247400002468
:1010A0007000002420000024780000242400002484
:1010B00000C0DA4600C0DAC600B0334600803B46C6
:1010C00000B033C600803BC600606A4600705FC651
:1010D00000606AC610B52DED068B05F019FDFE48BF
:1010E00090ED000AFD48D0ED000A30EE600AFC48A1
:1010F00080ED000AF84890ED010AF848D0ED010AA9
:1011000030EE600AF64880ED010AF34890ED020ADD
:10111000F248D0ED020A30EE600AB1EE400AF04823
:1011200080ED020AEF4890ED030A80ED060A90ED8B
:10113000040A80ED070A90ED050A80ED080A90ED9B
:10114000000A80ED030A90ED010A80ED040A90ED9B
:10115000020A80ED050AE44890ED000AE14880EDBE
:10116000000AE14890ED010ADE4880ED010ADE4800
:1011700090ED020ADB4880ED020ADC4890ED030A9C
:1011800080ED060A90ED040A80ED070A90ED050A4D
:1011900080ED080A90ED000A80ED030A90ED010A47
:1011A00080ED040A90ED020A80ED050AD04890ED2A
:1011B000001AB7EEC11AB0EE410B06F0B1FAB0EE6C
:1011C000408B08F09DFAB0EE409BC94890ED011AA3
:1011D000B7EEC11AB0EE410B06F0A2FAB0EE408BAA
:1011E00008F08EFA29EE000BBE4890ED021AB7EE19
:1011F000C11A81EE002BB7EEC20BBC4880ED020A8B
:10120000BC4890ED030A80ED060A90ED040A80EDDB
:10121000070A90ED050A80ED080A90ED000A80EDBE
:10122000030A90ED010A80ED040A90ED020A80EDB8
:10123000050AAF4890ED001AB7EEC11AB0EE410BA7
:1012400006F06EFAB0EE408B08F0B2FAA44890EDCA
:10125000011AB7EEC11A20EE01ABA54890ED011AB4
:10126000B7EEC11AB0EE410B06F05AFAB0EE408B61
:1012700008F0F6FA9A4890ED001AB7EEC19A0AEE15
:10128000009B9B4890ED001AB7EEC11AB0EE410BDF
:1012900006F046FAB0EE408B08F032FA904890ED36
:1012A000021AB7EEC11A20EE01AB914890ED011A77
:1012B000B7EEC11AB0EE410B06F032FAB0EE408B39
:1012C00008F0CEFA0AEE009BB7EEC90B894880ED14
:1012D000000A874890ED001AB7EEC11AB0EE410B34
:1012E00006F01EFAB0EE408B08F00AFA7C4890ED4A
:1012F000011AB7EEC11A20EE019B7D4890ED001A4D
:10130000B7EEC11AB0EE410B06F00AFAB0EE408B10
:1013100008F04EFA724890ED021AB7EEC11A01EECB
:10132000409BB7EEC90B734880ED010A704890ED01
:10133000001AB7EEC11AB0EE410B06F0F1F9B0EEAB
:10134000408B08F035FA664890ED011AB7EEC11AE5
:1013500020EE019B664890ED001AB7EEC11AB0EE80
:10136000410B06F0DDF9B0EE408B08F0C9F95C489E
:1013700090ED021AB7EEC11A01EE009B5C4890EDA9
:10138000041AB7EEC11AB0EE410B06F0C9F9B0EE7F
:10139000408B08F0B5F989EE001BB7EEC10B55483C
:1013A00080ED020A544890ED000A5148D0ED020A3F
:1013B00030EE600ADFED510AB4EEE00AF1EE10FA09
:1013C00008DD4D4890ED000ADFED4D0A30EE600A71
:1013D00080ED000A484890ED000A4548D0ED020A29
:1013E00030EE600ADFED470AB4EEE00AF1EE10FAE3
:1013F00008D2414890ED000ADFED410A30EE200AA4
:1014000080ED000A404890ED000A80ED030A90ED5F
:10141000010A80ED040A90ED020A80ED050A90EDC4
:10142000030A3448D0ED000A30EE200AD0ED030A5A
:1014300030EE600A2E48D0ED000A344890ED001AD4
:1014400070EEC10A9FED321A01EE600A2848D0ED15
:10145000030A2E4890ED021A70EEC10A9FED2D1A74
:1014600001EE200A284880ED000A90ED040A214888
:10147000D0ED010A30EE200AD0ED040A30EE600A09
:101480001B48D0ED010A214890ED011A70EEC10A07
:101490009FED1F1A01EE600A1548D0ED040A1B48A3
:1014A00090ED031A70EEC10A9FED1A1A01EE200AA0
:1014B000154880ED010A90ED050A0E48D0ED020AAC
:1014C00030EE200AD0ED050A30EE600A0848D0ED73
:1014D000020A094820E0000028040024AC0400248B
:1014E000700300247C03002434040024C40300247B
:1014F00000040024A0030024DC000024FED42040CB
:10150000560EC940FED420C0E8030024180400246D
:101510001904003FCFF7FF3E90ED001A70EEC10AAC
:101520001FED051A01EE600A5A48D0ED050A5A4827
:1015300090ED011A70EEC10A1FED0A1A01EE200AA1
:10154000564880ED020A534890ED000A80ED030AE8
:1015500090ED010A80ED040A90ED020A80ED050A83
:101560004E4890ED000AD0ED030A30EE200ADFED80
:101570004C0A60EE200AB0EE001A80EE810A45485F
:10158000D0ED030A30EE200A80ED000A434890EDCA
:10159000010AD0ED040A30EE200ADFED410A60EEC8
:1015A000200AB0EE001A80EE810A3A48D0ED040A13
:1015B00030EE200A80ED010A384890ED020AD0EDA5
:1015C000050A30EE200ADFED360A20EE200AB0EEE2
:1015D000001AC0EE010A2F4890ED050A30EE800A8D
:1015E00080ED020A90ED020ADFED2E0AB4EEE00A69
:1015F000F1EE10FA20DD90ED020A5FED3F0A30EEC9
:10160000600A80ED020A90ED050A5FED430A30EEB4
:10161000600A80ED050A204890ED000A5FED480A57
:1016200030EE600A80ED000A90ED010A5FED4C0A91
:1016300030EE600A80ED010A164890ED020ADFEDF7
:101640001A0AB4EEE00AF1EE10FA20D290ED020A86
:101650005FED550A30EE200A80ED020A90ED050A92
:101660005FED590A30EE200A80ED050A0A4890ED38
:10167000000A5FED5D0A30EE200A80ED000A90ED71
:10168000010A5FED610A30EE200A80ED010ABDEC2F
:10169000068B10BD00040024DC000024E8030024B5
:1016A0000AD7233B560E4940560E49C000BFFEE7FD
:1016B00010B505F0EDFE05F09DFE0348006840F012
:1016C00004000149086010BD9CEF00E010B502481D
:1016D00000F082FB10BD00004805002410B5024850
:1016E00000F07AFB10BD00003806002410B5024857
:1016F00000F072FB10BD0000D004002410B50248B9
:1017000000F06AFB10BD0000C00500240146087807
:1017100010381823B0FBF3F20848805CC865032A30
:1017200005D908686FF30900001D886503E00868A3
:101730006FF309008865886D7047000072A4000887
:1017400010B500210268174B9A4213D8154B8C3BF9
:101750009A420FD30378083B1424B3FBF4F1124BE5
:1017600003EB81030366104B8033436601238B40F8
:10177000836616E00378103B1824B3FBF4F10B4B9F
:101780009A4204D8094BA83B9A4200D30831084B2F
:1017900003EB81030366064B8033436601238B40D2
:1017A000836610BD9454025800580258B804024091
:1017B0000008024010B502680179E9B108291BD878
:1017C0000E4B9A420CD80D4B8C3B9A4208D34B1EC1
:1017D0000B4C04EB8303C366094B4033036707E0FC
:1017E0004B1E084C04EB8303C366064B4033036770
:1017F0004B1E01249C40446710BD000094540258C5
:101800000059025800090240014600208A69D2B9F5
:101810008A6A32B1012A0DD0022A03D0032A10D1DC
:101820000EE000BFCA6A02F08072B2F1807F00D180
:10183000012007E0CA6AB2F1C07F00D1012001E0B7
:1018400000E000BF36E08A69B2F5005F1BD18A6A0A
:1018500032B1012A07D0022A03D0032A11D10AE0AB
:1018600000BF01200EE0CA6A02F08072B2F1807FF0
:1018700000D1012006E0CA6AB2F1C07F00D1012088
:1018800000E000BF16E08A6A32B1012A05D0022AC0
:1018900004D0032A0CD103E000BF00BF012008E000
:1018A000CA6A02F08072B2F1807F00D1012000E0AC
:1018B00000BF00BF70470000F0B5846DD0E9196526
:1018C0007560C56E15B1D0E91C657560244E05685C
:1018D000B54205D3234E0568B54201D8012500E085
:1018E0000025CDB190F85C603F25B540A560056846
:1018F0002D6825F480250668356005686B6085686D
:10190000402D04D10568AA600568E96026E00568F5
:10191000A9600568EA6021E0134E0568B5421DD351
:10192000114E8C360568B54218D80F4D2D1F2D6805
:1019300090F85C700126BE4035430B4E361F356073
:1019400005686B608568402D04D10568AA6005684C
:10195000E96003E00568A9600568EA60F0BD000081
:1019600010000240B804024008540258704770B595
:1019700004460D462946204604F058FC29462046D8
:1019800004F0B2FB2946204604F0F4FB2946204629
:1019900004F0E2FC2946204604F01CFE70BD7CB534
:1019A00006460C46154606226946032008F09EFBB3
:1019B0009DF801009DF8001040EA012000B230803F
:1019C0009DF803009DF8021040EA012000B2288033
:1019D0009DF805009DF8041040EA012000B2208027
:1019E00008F0AAFB7CBD000010B510201949096859
:1019F000086205F0C3FB174803F0B8FB16480068FF
:101A00001649884208D3144800681549884203D80B
:101A100011480068406802E00F4800684068C0F55F
:101A20007A70C4B20F48007824280AD1C82C08DD87
:101A300022460C490C48FEF7C9FD0B490B48FFF73D
:101A400096FF05F03BFC4FF47A720649014803F01B
:101A5000B9FD10BD281300244805002410000240E1
:101A6000B8040240D80A0024C00E002460010024FB
:101A70002DE9F04104460025002600F0C1FE07468E
:101A800014B90120BDE8F08194F83500022808D08F
:101A90008020606500BF002084F8340000BF012072
:101AA000F0E742492068884205D3414920688842CE
:101AB00001D8012000E0002070B12068006820F00B
:101AC0001E00216808602068406920F080002168BD
:101AD0004861A56D266806E02068006820F00E00C9
:101AE000216808602668206E006820F48070216EEE
:101AF00008602E49206888420AD32D492068884210
:101B000006D82068006820F001002168086005E020
:101B10002068006820F001002168086010E000F0F3
:101B20006FFEC01B05280BD92020606500BF002078
:101B300084F8340000BF032084F835000120A1E7B9
:101B4000306800F001000028E9D118492068884277
:101B500005D317492068884201D8012000E0002001
:101B600028B194F85C103F208840A86005E094F804
:101B70005C10012088400F490860D4E919104860C2
:101B8000E06E40B1E06E006820F48070E16E0860A5
:101B9000D4E91C10486000BF002084F8340000BF66
:101BA000012084F8350000206CE70000100002409E
:101BB000B80402400454025810B504460CB9012080
:101BC00010BD94F83500022803D080206065012004
:101BD000F6E734492068884205D3334920688842B3
:101BE00001D8012000E00020C0B1042084F83500B5
:101BF0002C49206888420AD32B492068884206D89D
:101C00002068006820F001002168086048E0206832
:101C1000006820F001002168086041E02068006849
:101C200020F00E00216808601E49206888420AD30F
:101C30001D492068884206D82068006820F001000D
:101C40002168086005E02068006820F00100216834
:101C50000860206E006820F48070216E086094F89F
:101C60005C100120884011490860D4E919104860CF
:101C7000E06E40B1E06E006820F48070E16E0860B4
:101C8000D4E91C10486000BF002084F8340000BF75
:101C9000012084F83500206D10B12046216D884761
:101CA00000208DE710000240B8040240045402589E
:101CB00070B5044600250CB9012070BD94F83500BC
:101CC000022803D1800260650120F6E73D492068C3
:101CD00088420AD33C492068884206D820680068B8
:101CE00020F001002168086005E02068006820F00D
:101CF00001002168086033492068884205D33249D1
:101D00002068884201D8012000E00020B8B10020FE
:101D10002168086021684860216888602168C8607F
:101D2000216808612120216848612046FFF7EEFC08
:101D3000054694F85C103F208840A8601CE02349C9
:101D40002068884206D321498C312068884201D816
:101D5000012000E0002078B100202168086021689F
:101D60004860216888602168C86094F85C10012090
:101D700088401649091F08602046FFF7E1FC206EE5
:101D800028B10020216E0860D4E91910486060680D
:101D900058B16068082808D82046FFF70BFD0020DE
:101DA000E16E0860D4E91C1048600020E0662067FE
:101DB0006067606584F8350000BF84F8340000BFB8
:101DC00000BF7AE710000240B804024008540258ED
:101DD0000146486D704700002DE9F843044600278E
:101DE000002500200090FE4800684FF41651B0FB1B
:101DF000F1F8A66D3768FB492068884205D3FA4997
:101E00002068884201D8012000E0002000287BD013
:101E100094F85C1008208840384000B3F1492068ED
:101E2000884208D3F0492068884204D820680068B6
:101E300000F0040003E02068006800F0080070B1C2
:101E40002068006820F004002168086094F85C10A5
:101E500008208840B060606D40F00100606594F833
:101E60005C10E24888403840C8B1DE4920688842AA
:101E700008D3DD492068884204D82068406900F012
:101E8000800002E020680068002040B194F85C10F7
:101E9000D6488840B060606D40F00200606594F8FC
:101EA0005C10D248C01C88403840D0B1CD49206871
:101EB000884208D3CC492068884204D8206800684A
:101EC00000F0020002E020680068002048B194F8A9
:101ED0005C10C648C01C8840B060606D40F00400D3
:101EE000606594F85C1010208840384030B3BD49DC
:101EF0002068884209D3BC492068884205D82068F8
:101F0000006800F0080004E0EFE02068006800F0DE
:101F1000040098B194F85C1010208840B0602068EC
:101F2000006800F4802080B12068006800F4002080
:101F300028B9206C10B12046216C884715E0A06CB0
:101F400098B12046A16C88470FE02068006800F433
:101F5000807028B92068006820F0080021680860B7
:101F6000206C10B12046216C884794F85C1020202A
:101F700088403840002873D09A492068884208D3A6
:101F800099492068884204D82068006800F0100051
:101F900003E02068006800F00200002860D094F898
:101FA0005C1020208840B06094F83500042829D1C6
:101FB0002068006820F016002168086020684069E9
:101FC00020F0800021684861206C08B9A06C28B11D
:101FD0002068006820F008002168086094F85C1010
:101FE0003F208840B06000BF002084F8340000BF6C
:101FF000012084F83500206D10B12046216D8847FE
:10200000BDE8F8832068006800F4802080B1206873
:10201000006800F4002028B9606C10B12046616CA3
:1020200088471DE0E06BD8B12046E16B884717E098
:102030002068006800F4807068B92068006820F0AB
:1020400010002168086000BF002084F8340000BF41
:10205000012084F83500E06B10B12046E16B884721
:10206000606D002840D0606D00F0010090B3042046
:1020700084F835005B49206888420AD35A492068B1
:10208000884206D82068006820F0010021680860B6
:1020900005E02068006820F001002168086000BFAA
:1020A0000098401C0090404500D905E02068006879
:1020B00000F001000028F3D100BF00BF002084F829
:1020C000340000BF2068006800F0010018B1032050
:1020D00084F8350002E0012084F83500E06C002827
:1020E00002D02046E16C884797E041492068884249
:1020F00006D33F498C312068884201D8012000E096
:102100000020002853D0256839480838006894F822
:102110005C20042191400840E0B1286800F00400F0
:10212000C0B1286800F0200018B9286820F0040029
:1021300028602F48001F006894F85C20042191401B
:1021400008432B49091F0860206C80B32046216C8E
:10215000884762E026480838006894F85C2002212D
:102160009140084020B3286800F0020000B32868BE
:1021700000F0200058B9286820F00A00286000BF4D
:10218000002084F8340000BF012084F8350018488E
:10219000001F006894F85C20022191400843144914
:1021A000091F0860E06B10B12046E16B884734E0FE
:1021B0000F480838006894F85C20082191400840D6
:1021C00058B3286800F0080038B3286820F00E00E3
:1021D00028600748001F006894F85C20012109E08E
:1021E0000400002410000240B804024001008000F6
:1021F000085402589140084309490860012060656D
:1022000000BF002084F8340000BF012084F83500AE
:10221000E06C10B12046E16C884700BFF0E600009A
:10222000045402582DE9F0410446002500F0E8FA74
:102230000646002714B90120BDE8F08179492068DD
:10224000884205D378492068884201D8012000E0FF
:102250000020002871D0606A00B100BF00BF0020DC
:1022600084F8340000BF022084F835006D492068EE
:1022700088420AD36C492068884206D820680068E2
:1022800020F001002168086005E02068006820F067
:102290000100216808600BE000F0B2FA801B0528FD
:1022A00006D920206065032084F835000120C3E7AB
:1022B0002068006800F001000028EDD12068056862
:1022C0005A480540D4E9020108432169084361697D
:1022D0000843A1690843E1690843216A08430543AB
:1022E000606A042803D1D4E90B0108430543206840
:1022F00005602068456925F00705606A0543606A46
:1023000004280DD1A06A0543E06A48B12046FFF7D2
:102310007BFA28B140206065012084F835008BE706
:10232000206845612046FFF7F1F9074694F85C10F4
:102330003F208840B8604DE0FFE73D492068884273
:1023400006D33B498C312068884201D8012000E047
:102350000020B8B300BF002084F8340000BF022082
:1023600084F835002068056847F6F0708543A0685A
:10237000402801D1102105E0A068802801D1C101C9
:1023800000E00021E06841EAD001206941EAD00183
:10239000606941EAD001A06941EAD0002022E169E8
:1023A00002EAD1010843216A40EA1110054320687E
:1023B00005601F492068401A1421B0FBF1F080002D
:1023C000E06507E0FFE740206065032084F8350002
:1023D000012031E72046FFF7B3F9A068802801D13A
:1023E000002060602079216E0860D4E919104860EF
:1023F000606860B16068082809D82046FFF7DAF9FC
:102400000020E16E0860D4E91C10486003E0002061
:10241000E0662067606700206065012084F8350071
:10242000002009E710000240B80402403F8010FE7F
:10243000085402582DE9F04104460D4616461F4641
:102440004FF0000814B90120BDE8F08100BF94F8F6
:102450003400012801D10220F6E7012084F834007D
:1024600000BF94F8350001287CD1022084F83500A3
:10247000002060654149206888420AD340492068AD
:10248000884206D82068006820F0010021680860B2
:1024900005E02068006820F00100216808603B46E4
:1024A000324629462046FFF707FA34492068884219
:1024B00005D333492068884201D8012000E000207C
:1024C000B0B12068006820F01E0040F016002168BE
:1024D00008602068406940F0800021684861206CF5
:1024E000B0B12068006840F00800216808600FE083
:1024F0002068006820F00E0040F00A0021680860A3
:10250000206C28B12068006840F004002168086051
:10251000206E006800F4803028B1206E006840F41E
:102520008070216E0860E06E28B1E06E006840F4B3
:102530008070E16E08601149206888420BD3104911
:102540002068884207D82068006840F001002168B0
:10255000086011E006E02068006840F00100216892
:10256000086009E000BF002084F8340000BF4FF489
:10257000006060654FF00108404665E710000240CA
:10258000B80402400348006840F0010001490860B7
:102590007047000020040058F8B502460B460021A1
:1025A000002600240020824D00BFFCE0012707FA2E
:1025B00001F61F6807EA0604B4427CD15F68022F67
:1025C00002D05F68122F1AD14FEAD10C02F1200716
:1025D00057F82C004F074FEAD76C0F2707FA0CF774
:1025E000B8434FEA417C4FEADC6C1F6907FA0CF7ED
:1025F00038434FEAD10C02F1200747F82C0010684D
:102600004FEA410C032707FA0CF7B8431F7907F08C
:1026100003074FEA410C07FA0CF7384310605F6874
:10262000012F08D05F68022F05D05F68112F02D0FC
:102630005F68122F17D190684FEA410C032707FA01
:102640000CF7B8434FEA410CDF6807FA0CF7384340
:102650009060506801278F40B8431F79C7F3001777
:102660008F4038435060D0684FEA410C032707FA87
:102670000CF7B8434FEA410C9F6807FA0CF7384350
:10268000D0605F6807F08057B7F1805F95D100BFD9
:10269000484F3F6847F00207DFF818C1CCF80070D8
:1026A00067463F6807F00207009700BF00BF424F30
:1026B0004FEA910C00E075E057F82C008F074FEAC5
:1026C000177C0F2707FA0CF7B8433C4FBA4201D1E9
:1026D00000272DE03A4FBA4201D1012728E0394FB7
:1026E000BA4201D1022723E0374FBA4201D1032772
:1026F0001EE0364FBA4201D1042719E0344FBA42E6
:1027000001D1052714E0334FBA4201D106270FE06B
:10271000314FBA4201D107270AE0304FBA4201D106
:10272000082705E02E4FBA4201D1092700E00A2709
:102730004FEA817C4FEA1C7C07FA0CF738431E4FA6
:102740004FEA910C47F82C002868A0435F6807F413
:102750008037B7F5803F00D1204328606868A043E8
:102760005F6807F40037B7F5003F00D12043686089
:102770004FF0B0473868A0435F6807F48017B7F59B
:10278000801F00D120434FF0B04738607868A043E5
:102790005F6807F40017B7F5001F00D120434FF022
:1027A000B0477860491C1029FFF400AFF8BD000065
:1027B00080000058F44402580804005800000258F1
:1027C0000004025800080258000C02580010025879
:1027D0000014025800180258001C02580020025829
:1027E00000240258024613690B400BB1012000E09F
:1027F000002070470AB1018300E041837047000068
:1028000001480068704700000C000024034800687D
:102810000349097808440149086070470C00002406
:102820001400002410B5032000F07EF80F2000F003
:1028300007F808B1012010BD00F028F80020FAE7E1
:1028400070B504460E4800784FF47A71B1FBF0F091
:102850000C490968B1FBF0F5284602F0D9F908B136
:10286000012070BD102C07D200222146501E00F01E
:102870001EF80548046001E00120F2E70020F0E7BF
:1028800014000024040000241000002470470146B6
:102890000846002809DB00F01F0301229A40430983
:1028A0009B0003F1E023C3F8002100BF70472DE92E
:1028B000F05F80460D46164606F022FC0746394674
:1028C0002A46334601F00700C0F1070ABAF1040FA7
:1028D00002D94FF0040A01E0C0F1070AD14600F125
:1028E000040ABAF1070F02D24FF0000A01E0A0F18A
:1028F000030AD4464FF0010A0AFA09FAAAF1010ABA
:102900000AEA020A0AFA0CFA4FF0010B0BFA0CFB66
:10291000ABF1010B0BEA030B4AEA0B0421464046DC
:1029200006F0F6FBBDE8F09F00BF00F00702064B83
:1029300019684FF6FF031940044B0B4343EA022189
:10294000014B196000BF70470CED00E00000FA0574
:1029500010B501F067F90949096801F470614FF495
:10296000807292FAA2F2B2FA82F2D140044A515C29
:10297000C840044908600846006810BD1844025861
:1029800032A400080400002410B501F003F907493F
:10299000096801F07001102292FAA2F2B2FA82F2F2
:1029A000D140034A515CC84010BD00002044025889
:1029B00032A4000870B50146002201200023002443
:1029C0009FED811AB0EE410A9FED7F1AF0EE410AA9
:1029D0007E4D2D6805F003027C4D2D68C5F3053052
:1029E0007A4D2D1D2D6805F01003784D14352D6896
:1029F000C5F3CC0515FB03F501EE105AB8EE411AEC
:102A0000B0EE410A22B1012A4DD0022A7DD169E0FF
:102A10006E4D283D2D68C5F340152DB36B4D283DF7
:102A20002D68C5F3C1066A4D25FA06F4B4FBF0F52E
:102A300001EE105AF8EE411A9FED661A80EE012A57
:102A4000624D10352D68C5F3080501EE105AB8EE39
:102A5000411A32EE011AB7EE002A31EE021A21EEC7
:102A6000811AF0EE410A1DE0594DB5FBF0F501EE7B
:102A7000105AF8EE411A9FED571A80EE012A534D75
:102A800010352D68C5F3080501EE105AB8EE411A4D
:102A900032EE011AB7EE002A31EE021A21EE811A47
:102AA000F0EE410A5EE04C4DB5FBF0F501EE105A38
:102AB000B8EE412A9FED471AC0EE011A434D10357A
:102AC0002D68C5F3080501EE105AB8EE411A31EE33
:102AD000811AF7EE001A31EE211A22EE011AF0EEF9
:102AE000410A3FE03D4DB5FBF0F501EE105AF8EE1E
:102AF000411A9FED381A80EE012A344D10352D68A9
:102B0000C5F3080501EE105A00E00CE0B8EE411ADA
:102B100032EE011AB7EE002A31EE021A21EE811AC6
:102B2000F0EE410A1EE02C4DB5FBF0F501EE105A17
:102B3000B8EE412A9FED271AC0EE011A234D103539
:102B40002D68C5F3080501EE105AB8EE411A31EEB2
:102B5000811AF7EE001A31EE211A22EE011AF0EE78
:102B6000410A00BF00BF194D10352D68C5F3462539
:102B70006D1C01EE105AB8EE411AC0EE811ABCEE7F
:102B8000E11A81ED001A114D10352D68C5F3064587
:102B90006D1C01EE105AB8EE411AC0EE811ABCEE5F
:102BA000E11A81ED011A094D10352D68C5F306654E
:102BB0006D1C01EE105AB8EE411AC0EE811ABCEE3F
:102BC000E11A81ED021A70BD00000000284402588D
:102BD0000090D0030000004600093D0040787D01D0
:102BE00070B5014600220120002300249FED811AC8
:102BF000B0EE410A9FED7F1AF0EE410A7E4D2D683E
:102C000005F003027C4D2D68C5F305507A4D2D1D4E
:102C10002D6805F48073784D1C352D68C5F3CC05FF
:102C200015FB03F501EE105AB8EE411AB0EE410A59
:102C300022B1012A4DD0022A7DD169E06E4D283D96
:102C40002D68C5F340152DB36B4D283D2D68C5F398
:102C5000C1066A4D25FA06F4B4FBF0F501EE105AF0
:102C6000F8EE411A9FED661A80EE012A624D183582
:102C70002D68C5F3080501EE105AB8EE411A32EE80
:102C8000011AB7EE002A31EE021A21EE811AF0EE97
:102C9000410A1DE0594DB5FBF0F501EE105AF8EE72
:102CA000411A9FED571A80EE012A534D18352D68B1
:102CB000C5F3080501EE105AB8EE411A32EE011ABA
:102CC000B7EE002A31EE021A21EE811AF0EE410A27
:102CD0005EE04C4DB5FBF0F501EE105AB8EE412A1E
:102CE0009FED471AC0EE011A434D18352D68C5F304
:102CF000080501EE105AB8EE411A31EE811AF7EECE
:102D0000001A31EE211A22EE011AF0EE410A3FE0DC
:102D10003D4DB5FBF0F501EE105AF8EE411A9FED6E
:102D2000381A80EE012A344D18352D68C5F3080590
:102D300001EE105A00E00CE0B8EE411A32EE011A32
:102D4000B7EE002A31EE021A21EE811AF0EE410AA6
:102D50001EE02C4DB5FBF0F501EE105AB8EE412AFD
:102D60009FED271AC0EE011A234D18352D68C5F3C3
:102D7000080501EE105AB8EE411A31EE811AF7EE4D
:102D8000001A31EE211A22EE011AF0EE410A00BFBC
:102D900000BF194D18352D68C5F346256D1C01EE91
:102DA000105AB8EE411AC0EE811ABCEEE11A81ED5C
:102DB000001A114D18352D68C5F306456D1C01EE3E
:102DC000105AB8EE411AC0EE811ABCEEE11A81ED3C
:102DD000011A094D18352D68C5F306656D1C01EE05
:102DE000105AB8EE411AC0EE811ABCEEE11A81ED1C
:102DF000021A70BD00000000284402580090D00361
:102E00000000004600093D0040787D012DE9F041B9
:102E1000044600250026206800F00060B0F1006F35
:102E200030D1606E48B1B0F5801F0DD0B0F5001FF5
:102E300010D0B0F5401F15D113E0F948006840F4F8
:102E40000030F74908600FE00221201D03F030FD3B
:102E5000054609E0022104F1240003F0C1FD054606
:102E600002E001E0012500BF00BF55B9EC48243065
:102E7000006820F44010616E0843E949243108607D
:102E800000E02E43208800F48070B0F5807F2DD1C3
:102E9000606D05281AD2DFE800F0030A1017180049
:102EA000DF48006840F40030DD49086010E0002190
:102EB000201D03F0FDFC05460AE0002104F124007A
:102EC00003F08EFD054603E002E001E0012500BFAE
:102ED00000BF55B9D2482430006820F00700616D6A
:102EE0000843CF492431086000E02E43208800F4D5
:102EF0000070B0F5007F33D1A06D802817D003DCBF
:102F000040B140281CD10CE0C02817D0B0F5807F1C
:102F100016D114E0C248006840F40030C04908608F
:102F200010E00021201D03F0C3FC05460AE000214B
:102F300004F1240003F054FD054603E002E001E043
:102F4000012500BF00BF55B9B5482430006820F402
:102F5000E070A16D0843B2492431086000E02E43BF
:102F6000208800F48060B0F5806F38D1D4F8A400D8
:102F7000B0F5800F19D004DC50B1B0F5001F1DD1A1
:102F80000DE0B0F5C00F17D0B0F5000F16D114E06A
:102F9000A348006840F40030A149086010E0002117
:102FA000201D03F085FC05460AE0002104F1240001
:102FB00003F016FD054603E002E001E0012500BF35
:102FC00000BF5DB996482C30006820F46000D4F84A
:102FD000A410084392492C31086000E02E43208859
:102FE00000F40060B0F5006F38D1D4F8A800B0F15B
:102FF000007F19D004DC50B1B0F1807F1DD10DE00D
:10300000B0F1407F17D0B0F1806F16D114E0844842
:10301000006840F400308249086010E00021201D63
:1030200003F046FC05460AE0002104F1240003F009
:10303000D7FC054603E002E001E0012500BF00BF28
:103040005DB977482C30006820F0E060D4F8A81013
:10305000084373492C31086000E02E43206800F0DB
:103060000070B0F1007F27D1A06CA0B1102804D06F
:10307000202809D030280FD10CE06948006840F4BE
:1030800000306749086009E00221201D03F010FCB0
:10309000054603E002E001E0012500BF00BF55B98D
:1030A0005F482030006820F03000A16C08435C4984
:1030B0002031086000E02E43208800F48050B0F5F5
:1030C000805F36D1E06DB0F5005F19D004DC50B1FF
:1030D000B0F5805F1DD10DE0B0F5405F17D0B0F5C1
:1030E000804F16D114E04E48006840F400304C493F
:1030F000086010E00021201D03F0DAFB05460AE01D
:10310000002104F1240003F06BFC054603E002E01B
:1031100001E0012500BF00BF55B9414824300068D7
:1031200020F4E040E16D08433D492431086000E0AF
:103130002E43208800F40050B0F5005F34D1206E9B
:10314000B0F5403F1DD007DC68B1B0F5803F0BD033
:10315000B0F5003F18D10DE0B0F5802F12D0B0F5DA
:10316000A02F11D10FE011E00121201D03F0A0FBE1
:1031700005460BE0012104F1240003F031FC054673
:1031800004E003E002E001E0012500BF00BF55B903
:1031900023482430006820F4E020216E08432049B1
:1031A0002431086000E02E43208800F48040B0F510
:1031B000804F38D1D4F8AC00B0F1405F1DD007DCAF
:1031C00068B1B0F1805F0BD0B0F1005F18D10DE0B5
:1031D000B0F1804F12D0B0F1A04F11D10FE011E04B
:1031E0000121201D03F064FB05460BE0012104F1E1
:1031F000240003F0F5FB054604E003E002E001E0F3
:10320000012500BF00BF6DB905482C30006820F0D3
:10321000E040D4F8AC10084301492C31086002E0CA
:103220002C4402582E43208800F40040B0F5004F93
:1032300026D1E06E98B1B0F1805F03D0B0F1005FAD
:103240000ED106E0FA48006840F40030F849086002
:1032500008E00121201D03F02BFB054602E001E000
:10326000012500BF00BF55B9F1482430006820F0A7
:103270004050E16E0843EE492431086000E02E43DF
:10328000206800F08070B0F1807F27D1606CA0B121
:10329000012804D0022809D003280FD10CE0E4480B
:1032A000006840F40030E249086009E00221201D76
:1032B00003F0FEFA054603E002E001E0012500BF4D
:1032C00000BF55B9DA482030006820F00300616C77
:1032D0000843D7492031086000E02E43206800F4FD
:1032E0008000B0F5800F7DD1D248006840F4807036
:1032F000D0490860FFF784FA074606E0FFF780FA36
:10330000C01B642801D9032505E0CA48006800F401
:1033100080700028F2D000BF8DBBC54844300068E3
:1033200000F44070B4F8B01001F44071884214D039
:10333000BF484430006820F44078BD4844300068FD
:1033400040F48030BA49443108600846006820F4EF
:10335000803008600846C0F80080D4F8B000B0F5AE
:10336000807F15D1FFF74CFA074609E0FFF748FACE
:10337000C01B41F28831884202D9032507E038E0BA
:10338000AB4844300068C0F340000028EED000BFD6
:103390004DBB00BFB4F8B00000F44070B0F5407F02
:1033A0000ED1A3481C38006820F47C51A24AD4F8FE
:1033B000B000104041EA10109D491C39086007E038
:1033C0009B481C38006820F47C5099491C390860DF
:1033D000974844300068B4F8B010C1F30B010843BB
:1033E000934901E006E002E04431086002E02E4328
:1033F00000E02E43207800F0010068B3A06F182889
:1034000019D005DC48B1082808D0102816D10BE0E7
:10341000202811D0282811D10FE011E00121201D12
:1034200003F046FA05460BE0012104F1240003F005
:10343000D7FA054604E003E002E001E0012500BF01
:1034400000BF55B97A482830006820F03800A16FD5
:10345000084377492831086000E02E43207800F0C7
:103460000200022828D1606F062815D2DFE800F09C
:1034700003040A11121311E00121201D03F018FAB0
:1034800005460BE0012104F1240003F0A9FA0546EA
:1034900004E003E002E001E0012500BF00BF55B9F0
:1034A00063482830006820F00700616F08436049D6
:1034B0002831086000E02E43207800F00400042842
:1034C0002AD1D4F89000062815D2DFE800F00304D2
:1034D0000A11121311E00121201D03F0E9F905463C
:1034E0000BE0012104F1240003F07AFA054604E020
:1034F00003E002E001E0012500BF00BF5DB94C48D8
:103500002C30006820F00700D4F890100843484998
:103510002C31086000E02E43207800F020002028A5
:1035200036D1D4F88C00B0F1405F1DD007DC68B113
:10353000B0F1805F0BD0B0F1005F18D10DE0B0F1B9
:10354000804F12D0B0F1A04F11D10FE011E0002157
:10355000201D03F0ADF905460BE0022104F1240023
:1035600003F03EFA054604E003E002E001E0012535
:1035700000BF00BF5DB92E482830006820F0E04051
:10358000D4F88C1008432A492831086000E02E4303
:10359000207800F04000402836D1D4F89800B0F5EB
:1035A000406F1DD007DC68B1B0F5806F0BD0B0F56F
:1035B000006F18D10DE0B0F5805F12D0B0F5A05FBC
:1035C00011D10FE011E00021201D03F071F9054633
:1035D0000BE0022104F1240003F002FA054604E0A6
:1035E00003E002E001E0012500BF00BF5DB9104823
:1035F0002C30006820F4E050D4F8981008430C49AF
:103600002C31086000E02E43207800F080008028F4
:103610003BD1D4F89C00B0F5C04F24D00EDCA0B153
:10362000B0F5005F12D0B0F5804F1FD114E000005C
:103630002C44025800480258FFFCFF0FB0F5004F21
:1036400012D0B0F5204F11D10FE011E00021201D64
:1036500003F02EF905460BE0022104F1240003F0EB
:10366000BFF9054604E003E002E001E0012500BFE8
:1036700000BF4DB9B248006820F46040D4F89C10F7
:103680000843AF49086000E02E43207800F00800AE
:10369000082816D1D4F88000B0F5805F06D1022149
:1036A00004F1240003F09CF906430AE0A448001F3B
:1036B000006820F44050D4F880100843A049091F46
:1036C0000860207800F01000102814D1D4F894007D
:1036D000B0F5807F06D1022104F1240003F080F9C7
:1036E000064308E09648006820F44070D4F894102F
:1036F000084393490860206800F40020B0F5002FCB
:1037000026D1D4F8A00030B1B0F5803F09D0B0F593
:10371000003F0ED10CE00021201D03F0C9F8054642
:1037200009E0022104F1240003F05AF9054602E001
:1037300001E0012500BF00BF4DB98148006820F4B9
:103740004030D4F8A01008437D49086000E02E43C3
:10375000206800F48020B0F5802F2DD1D4F88400AB
:10376000B0F5801F06D0B0F5001F0CD0B0F5401F9B
:1037700011D10FE072482C38006840F400307049D5
:103780002C39086009E0012104F1240003F028F934
:10379000054602E001E0012500BF00BF5DB96848B1
:1037A000001F006820F44010D4F8841008436449D6
:1037B000091F086000E02E43206800F48030B0F557
:1037C000803F24D1E06C18B1B0F5803F0FD108E004
:1037D0005B482C38006840F4003059492C390860A7
:1037E00007E00221201D03F063F8054601E00125F2
:1037F00000BF00BF55B952480C38006820F4803033
:10380000E16C08434E490C39086000E02E43206803
:1038100000F00050B0F1005F05D1022104F1240056
:1038200003F0DEF80643206800F40030B0F5003FF6
:1038300027D1E06FA0B1B0F5807F06D0B0F5007F52
:103840000CD0B0F5407F0CD109E03D482C38006821
:1038500040F400303A492C39086004E003E002E00B
:1038600001E0012500BF00BF55B93548001F0068C1
:1038700020F44070E16F08433149091F086000E0FF
:103880002E43206800F48010B0F5801F09D12C4829
:103890000838006820F00040216F084328490839A3
:1038A0000860206800F08050B0F1805F0AD12448A1
:1038B0004838006820F48040D4F8B4100843204908
:1038C00048390860206800F40010B0F5001F09D1E5
:1038D0001B480838006820F08070A16E0843184922
:1038E00008390860206800F08040B0F1804F11D1A5
:1038F00000BF13484838006820F400401049483998
:10390000086008460068D4F8B81008430C494839E4
:10391000086000BF206800F00040B0F1004F09D1FE
:1039200007480C38006820F04050216D08430449D6
:103930000C39086016B90020BDE8F0810120FBE7D2
:103940005844025870B504460D4600268D4800685C
:1039500000F00700A8420ED28A48006820F0070055
:103960002843884908600846006800F00700A8421C
:1039700001D0012070BD207800F00200022807D19C
:103980008148006820F00F00E16808437E49086024
:10399000207800F00100002851D07B48006820F416
:1039A0007060A1680843784908606068022807D100
:1039B000754818380068C0F34040F8B90120D9E7CD
:1039C0006068032807D1704818380068C0F3406069
:1039D000A0B90120CEE76068012807D16A481838ED
:1039E0000068C0F3002048B90120C3E766481838D2
:1039F0000068C0F3800008B90120BBE762480838BE
:103A0000006820F00700616808435F4908390860D2
:103A1000FEF7F6FE06466068022811D108E0FEF7C0
:103A2000EFFE801B41F28831884201D90320A1E7D3
:103A300055480838006800F038001028EFD13AE007
:103A40006068032811D108E0FEF7DAFE801B41F21E
:103A50008831884201D903208CE74B480838006838
:103A600000F038001828EFD125E06068012811D156
:103A700008E0FEF7C5FE801B41F28831884201D97B
:103A8000032077E740480838006800F0380008282D
:103A9000EFD110E008E0FEF7B3FE801B41F2883161
:103AA000884201D9032065E737480838006800F0EC
:103AB00038000028EFD13348006800F00700A84222
:103AC0000ED93048006820F0070028432D490860CF
:103AD0000846006800F00700A84201D0012049E72D
:103AE000207800F00400042807D12748006820F05F
:103AF00070002169084324490860207800F008001C
:103B0000082809D12048001D006820F07000616974
:103B100008431D49091D0860207800F01000102896
:103B200009D11948001D006820F4E060A16908432C
:103B30001549091D0860207800F02000202809D1CF
:103B400011480830006820F07000E16908430E4910
:103B50000831086000F066F80B49096801F47061EB
:103B60004FF4807292FAA2F2B2FA82F2D140074A7E
:103B7000515CC840064908600F20FEF761FE002036
:103B8000F8E60000002000521844025832A4000851
:103B90000400002410B5FEF7DBFE0949096801F0B6
:103BA0000F01012292FAA2F2B2FA82F2D140054A42
:103BB000515CC840044908600846006810BD000018
:103BC0001844025832A400080800002410B5FFF77A
:103BD000E1FF0749096801F07001102292FAA2F290
:103BE000B2FA82F2D140034A515CC84010BD0000D5
:103BF0001C44025832A4000810B5FFF7CBFF074958
:103C0000096801F4E0614FF4807292FAA2F2B2FA0C
:103C100082F2D140024A515CC84010BD1C44025897
:103C200032A4000870B5012500EE905A002201214F
:103C300000230024DFED861AB0EE610ADFED841A5E
:103C4000B0EE611A0020834D2D6805F0380535B1BE
:103C5000082D15D0102D15D0182D7CD114E07D4DD8
:103C6000103D2D68C5F3401545B17A4D103D2D68C6
:103C7000C5F3C106784D25FA06F000E07648E5E088
:103C80007648E3E07648E1E0724D18352D6805F09E
:103C90000302704D18352D68C5F305116D4D1C35A7
:103CA0002D6805F001036B4D24352D68C5F3CC0557
:103CB00015FB03F501EE905AF8EE611AB0EE610AB9
:103CC00022B1012A4FD0022A7DD16BE0614D103D17
:103CD0002D68C5F340152DB35E4D103D2D68C5F31D
:103CE000C1065D4D25FA06F4B4FBF1F501EE905ADC
:103CF000B8EE612ADFED5B1AC0EE212A554D203562
:103D00002D68C5F3080501EE905AF8EE611A72EEBF
:103D1000A11AF7EE002A71EEA21A62EE211AB0EE95
:103D2000611A1FE04C4DB5FBF1F501EE905AB8EE6B
:103D3000612ADFED4C1AC0EE212A464D20352D6850
:103D4000C5F3080501EE905AF8EE611A72EEA11A59
:103D5000F7EE002A00E077E071EEA21A62EE211A77
:103D6000B0EE611A5EE03D4DB5FBF1F501EE905A03
:103D7000B8EE612ADFED3B1AC0EE212A354D203521
:103D80002D68C5F3080501EE905AF8EE611A72EE3F
:103D9000A11AF7EE002A71EEA21A62EE211AB0EE15
:103DA000611A3FE02E4DB5FBF1F501EE905AB8EEE9
:103DB000612ADFED2C1AC0EE212A264D20352D6810
:103DC000C5F3080500E00EE001EE905AF8EE611A26
:103DD00072EEA11AF7EE002A71EEA21A62EE211A13
:103DE000B0EE611A1EE01D4DB5FBF1F501EE905AE3
:103DF000F8EE612ADFED1B1A80EE212A154D2035E1
:103E00002D68C5F3080501EE905AF8EE611A72EEBE
:103E1000211AB7EE002A71EE821A62EEA11AB0EEF4
:103E2000611A00BF00BF0B4D20352D68C5F3462534
:103E30006D1C00EE905AF8EE601A81EE212AFCEE1D
:103E4000C21A11EE900A01E0044800BF00BF70BD25
:103E500000000000104402580090D00300093D000B
:103E600040787D010000004670B5044600252078AA
:103E700000F00100002872D0F948006800F0380016
:103E800010280CD0F648006800F03800182812D12D
:103E9000F3481830006800F0030002280BD1F04806
:103EA00010380068C0F3404000286DD060680028DA
:103EB0006AD1012070BD00BF6068B0F5803F08D1B5
:103EC000E7481038006840F48030E5491039086050
:103ED0002EE0606868B9E2481038006820F480304D
:103EE000DF49103908600846006820F48020086027
:103EF0001EE06068B0F5A02F0DD1D94810380068D9
:103F000040F48020D649103908600846006840F423
:103F1000803008600CE0D2481038006820F480300F
:103F2000CF49103908600846006820F480200860F6
:103F300000BF6068A0B1FEF763FC054608E0FEF72D
:103F40005FFC401B41F28831884201D90320B1E770
:103F5000C34810380068C0F340400028EFD013E099
:103F6000FEF74EFC054608E0FEF74AFC401B41F216
:103F70008831884201D903209CE7B948103800688D
:103F8000C0F340400028EFD1207800F00200022862
:103F900047D1B348006800F0380058B1B048006815
:103FA00000F0380018283ED1AD481830006800F005
:103FB0000300B8BBAA4810380068C0F3800018B1ED
:103FC000E06808B9012075E7A5481038006820F0BE
:103FD0001900E1680843A24910390860FEF710FC97
:103FE000054606E0FEF70CFC401B022801D9032021
:103FF00060E79B4810380068C0F380000028F1D0CB
:1040000097480C38006820F47C304FF47C3292FAE8
:10401000A2F2B2FA82F221699140084390490C3928
:1040200008604AE0FFE7E06868B38D481038006830
:1040300020F01900E1680843894910390860FEF74B
:10404000DFFB054606E0FEF7DBFB401B022801D93B
:1040500003202FE7824810380068C0F38000002852
:10406000F1D07F480C38006820F47C304FF47C326B
:1040700092FAA2F2B2FA82F2216991400843784999
:104080000C39086019E076481038006820F001000B
:10409000734910390860FEF7B3FB054606E0FEF7EA
:1040A000AFFB401B022801D9032003E76C481038FE
:1040B0000068C0F380000028F1D1207800F01000E3
:1040C000102877D16648006800F0380008280CD026
:1040D0006348006800F03800182823D16048183081
:1040E000006800F0030001281CD15D48103800680A
:1040F000C0F3002020B1E069802801D00120D9E67A
:1041000057480C38006820F0F8404FF0F84292FA17
:10411000A2F2B2FA82F2216A9140084350490C3966
:10412000086047E0E06958B34D481038006840F037
:1041300080004B4910390860FEF762FB054606E037
:10414000FEF75EFB401B022801D90320B2E644487B
:1041500010380068C0F300200028F1D040480C3827
:10416000006820F0F8404FF0F84292FAA2F2B2FA5A
:1041700082F2216A9140084339490C39086019E0FC
:1041800037481038006820F0800035491039086041
:10419000FEF736FB054606E0FEF732FB401B022821
:1041A00001D9032086E62E4810380068C0F30020AD
:1041B0000028F1D1207800F00800082836D1606985
:1041C000D0B127486430006840F0010024496431D0
:1041D0000860FEF715FB054606E0FEF711FB401BE5
:1041E000022801D9032065E61D4864300068C0F349
:1041F00040000028F1D019E019486430006820F030
:104200000100174964310860FEF7FAFA054606E036
:10421000FEF7F6FA401B022801D903204AE61048AF
:1042200064300068C0F340000028F1D1207800F02D
:104230002000202834D1A069D8B10948103800687E
:1042400040F48050064910390860FEF7D9FA054657
:1042500008E0FEF7D5FA401B022803D9032029E61F
:1042600010440258AF480068C0F340300028F0D036
:1042700016E0AC48006820F48050AA490860FEF7B8
:10428000BFFA054606E0FEF7BBFA401B022801D93B
:1042900003200FE6A3480068C0F340300028F2D1A5
:1042A000207800F0040004287DD19F48006840F485
:1042B00080709D490860FEF7A3FA054606E0FEF708
:1042C0009FFA401B642801D90320F3E59648006853
:1042D00000F480700028F2D000BFA068012808D147
:1042E00090487030006840F001008E4970310860DD
:1042F0002DE0A06868B98B487030006820F001009C
:104300008849703108600846006820F004000860A1
:104310001DE0A06805280DD182487030006840F08B
:1043200004008049703108600846006840F00100D0
:1043300008600CE07B487030006820F0010079498B
:10434000703108600846006820F00400086000BF73
:10435000A068A0B1FEF754FA054608E0FEF750FA4F
:10436000401B41F28831884201D90320A2E56D4803
:1043700070300068C0F340000028EFD013E0FEF773
:104380003FFA054608E0FEF73BFA401B41F2883150
:10439000884201D903208DE5624870300068C0F37F
:1043A00040000028EFD1606A00287CD05D481030C2
:1043B000006800F03800182876D0606A022874D1AE
:1043C0005848006820F0807056490860FEF718FAD7
:1043D000054606E0FEF714FA401B022801D9032027
:1043E00068E550480068C0F340600028F2D100BF83
:1043F000D4E90A1041EA00104A492831096840F21C
:10440000F33291430843474928310860208E401E0B
:10441000C0F30800616B491E4FF47E4202EA41215D
:104420000843218F491ED20102EA014108433C2181
:10443000095D491E120202EA01610843394930311F
:10444000086000BF081D00684FF6F87188434FF6FA
:10445000F87292FAA2F2B2FA82F2A16C9140084389
:104460003049343108602F482C30006820F00C00AF
:10447000216C08432B492C3108600846006820F065
:104480000200616C084327492C3108600846006827
:1044900040F4803008600846006840F4003008604E
:1044A0000846006802E03BE038E01FE040F480206E
:1044B00008600846006840F001000860194800687C
:1044C00040F0807017490860FEF79AF9054606E04B
:1044D000FEF796F9401B022801D90320EAE41148AF
:1044E0000068C0F340600028F2D019E00D48006871
:1044F00020F080700B490860FEF782F9054606E05F
:10450000FEF77EF9401B022801D90320D2E40548BA
:104510000068C0F340600028F2D101E00120C9E446
:104520000020C7E4004402580048025870B5044611
:10453000002500260CB9012070BD606A00B900BFDB
:10454000A06AB0F5800F00D100BF8E492068884274
:104550000CD08D492068884208D08C492068884258
:1045600004D0E0680F2801D90120E5E7204603F0D8
:104570008FF8064683492068884209D0824920681E
:10458000884205D081492068884201D0082E0DD884
:104590007C492068884207D07B492068884203D044
:1045A0007A492068884203D1102E01D90120C3E73F
:1045B000A06AB0F5800F1DD17249206888420DD0E5
:1045C00071492068884209D070492068884205D026
:1045D000206BB0F5702F01D90120ADE7206B10B929
:1045E000A089050400E0256BE068B0EB154F01D908
:1045F0000120A1E794F8810028B9002084F8800008
:10460000204600F0C5F8022084F881002068006888
:1046100020F0010021680860A069B0F1806F0BD123
:104620006068B0F5800F07D1A06B28B920680068DA
:1046300040F4805021680860A16AE069084328437B
:10464000E16B0843E168084321688860616A606B38
:104650000843A16B0843A1690843216908436169C4
:104660000843216A084361680843E16C0843A16874
:104670000843A16C0843A16D08432168C860A06A83
:10468000B0F5800F4DD1206C012806D1206800685C
:1046900040F400402168086005E02068006820F4CC
:1046A000004021680860606C012806D1206800681D
:1046B00040F480402168086005E02068006820F42C
:1046C0008040216808602F49206888420AD02E491E
:1046D0002068884206D02D492068884202D0B5F56E
:1046E000702F0ED027492068884207D026492068BD
:1046F000884203D025492068884209D1B5F5F81FC2
:1047000006D12068006840F400502168086005E088
:104710002068006820F40050216808602168E06A81
:104720000864606888B9A06A38B92068806820F495
:10473000C05040F40060216888602068806820F4E0
:10474000C06040F48060216888602068006D20F0BF
:10475000010021680865606800F48000B0F5800FF2
:1047600007D12068C06820F00040616D08432168CF
:10477000C8600020C4F88400012084F88100002073
:10478000DAE600000030014000380040003C004004
:1047900010B5B6B0044600BF1A48006840F00200E9
:1047A000184908600846006800F00200019000BF48
:1047B00000BF00BF13480830006840F48040114932
:1047C000083108600846006800F48040019000BF8E
:1047D00000BF4FF4805002900020199002A8FEF70D
:1047E00015FB4FF46040319002203290012033904D
:1047F000032034900520359031A90348FDF7CCFE05
:1048000036B010BDE0440258000402582DE9F84FBC
:104810000446884691461D460A9E0027BA4600BFB8
:1048200094F88000012802D10220BDE8F88F012011
:1048300084F8800000BFFDF7E3FF074694F881008D
:10484000012812D06068B0F5800F05D1A06818B9B2
:1048500094F88100042808D04FF0020A00BF00201D
:1048600084F8800000BF5046DFE7B8F1000F03D0A6
:10487000B9F1000F00D045B94FF0010A00BF002088
:1048800084F8800000BF5046CFE794F881000428E8
:1048900002D0052084F881000020C4F88400C4F808
:1048A0006490A4F86A50A4F86850C4F85C80A4F836
:1048B0006250A4F8605020676067206840686FF31A
:1048C0000F002843216848602068006840F001001C
:1048D000216808606068B0F5800F05D12068006825
:1048E00040F4007021680860E0680F284CD942E06D
:1048F000B4F8620088B12068406900F00200022824
:104900000BD1E06D006821680862E06D001DE06574
:10491000B4F86200401EA4F86200B4F86A0088B1DE
:104920002068406948F20801084058B12068006BCF
:10493000616E0860606E001D6066B4F86A00401E1B
:10494000A4F86A00701CB0B1FDF75AFFC01BB0425A
:1049500011D3204602F01EFE00BF002084F8800024
:1049600000BFD4F8840040F48070C4F884000120B3
:1049700084F8810059E7B4F862000028B8D1B4F88F
:104980006A000028B4D10FE1E068072871D966E019
:10499000B4F8620020B32068406900F002000228E9
:1049A0001ED1B4F8620001280ED9E06B60B1E06D51
:1049B000006821680862E06D001DE065B4F86200DF
:1049C000801EA4F862000BE0E06D00882168088476
:1049D000E06D801CE065B4F86200401EA4F862003F
:1049E000B4F86A0010B32068406900F46040E8B190
:1049F0002068406900F4004060B12068006B616E7F
:104A00000860606E001D6066B4F86A00801EA4F83D
:104A10006A000BE02068008E616E0880606E801C6A
:104A20006066B4F86A00401EA4F86A00701CB0B159
:104A3000FDF7E6FEC01BB04211D3204602F0AAFDEE
:104A400000BF002084F8800000BFD4F8840040F448
:104A50008070C4F88400012084F88100E5E6B4F891
:104A60006200002894D1B4F86A00002890D19BE03D
:104A7000FFE790E0B4F8620058B32068406900F0A6
:104A80000200022833D1B4F8620003280FD9E06B8A
:104A900040280CD9E06D006821680862E06D001DB7
:104AA000E065B4F86200001FA4F862001FE0B4F8EB
:104AB000620001280ED9E06B60B1E06D00882168CA
:104AC0000884E06D801CE065B4F86200801EA4F8E4
:104AD00062000CE0E06D0078216881F82000E06D54
:104AE000401CE065B4F86200401EA4F86200B4F80F
:104AF0006A0048B32068406900F4604020B3206831
:104B0000406900F4004060B12068006B616E08608D
:104B1000606E001D6066B4F86A00001FA4F86A00A9
:104B200020E02068406900F4C040B0F5005F0CD977
:104B30002068008E616E0880606E801C6066B4F82C
:104B40006A00801EA4F86A000CE0206890F830002B
:104B5000616E0870606E401C6066B4F86A00401EAA
:104B6000A4F86A00701CB0B1FDF74AFEC01BB04249
:104B700011D3204602F00EFD00BF002084F8800013
:104B800000BFD4F8840040F48070C4F88400012091
:104B900084F8810049E6B4F8620000287FF46AAF27
:104BA000B4F86A000028F9D13B46002208212046CB
:104BB000009602F07AFD28B1D4F8840040F020007D
:104BC000C4F88400204602F0E5FC00BF002084F811
:104BD000800000BF012084F88100D4F8840008B16F
:104BE000012022E6002020E6042808D14FF0E02131
:104BF000096941F004014FF0E022116107E04FF034
:104C0000E021096921F004014FF0E02211617047B1
:104C100070B504462546681EB0F1807F01D301209F
:104C20000FE0681E4FF0E02148610F214FF0FF3088
:104C300004F06EFA00204FF0E0218861072008613F
:104C4000002070BD7047704710B504460CB90120B4
:104C500010BD94F83D0028B9002084F83C0020469F
:104C600000F00CF8022084F83D00211D206803F0BC
:104C7000D5F8012084F83D000020E9E738B5044666
:104C80000D492068884215D100BF0C48006840F0EB
:104C900002000A4908600846006800F0020000901F
:104CA00000BF00BF032201211D20FDF700FE1D20D3
:104CB000FDF7EDFD38BD000000040040E844025857
:104CC00001460868C06840F001000A68D0600868C2
:104CD000008840F001000A6810800020704770478B
:104CE00010B5044620680069C0F34000D8B12068C0
:104CF000C068C0F34000B0B16FF0020021680861E5
:104D0000012020772068806900F0030018B1204658
:104D1000FFF7E5FF05E0204600F0BEF8204600F072
:104D2000D9F90020207720680069C0F38000D8B14D
:104D30002068C068C0F38000B0B16FF00400216843
:104D40000861022020772068806900F4407018B163
:104D50002046FFF7C4FF05E0204600F09DF82046FE
:104D600000F0B8F90020207720680069C0F3C00087
:104D7000D8B12068C068C0F3C000B0B16FF00800BF
:104D800021680861042020772068C06900F00300D2
:104D900018B12046FFF7A3FF05E0204600F07CF89D
:104DA000204600F097F90020207720680069C0F3C2
:104DB0000010D8B12068C068C0F30010B0B16FF027
:104DC000100021680861082020772068C06900F47D
:104DD000407018B12046FFF782FF05E0204600F042
:104DE0005BF8204600F076F9002020772068006903
:104DF00000F0010058B12068C06800F0010030B137
:104E00006FF0010021680861204600F09DF92068DC
:104E10000069C0F3C01058B12068C068C0F3C0106A
:104E200030B16FF08000216808612046FFF70AFF6B
:104E300020680069C0F3002058B12068C068C0F342
:104E4000C01030B16FF08000216808612046FFF784
:104E5000F9FE20680069C0F3801058B12068C0686E
:104E6000C0F3801030B16FF0400021680861204627
:104E700000F07AF920680069C0F3401058B120684A
:104E8000C068C0F3401030B16FF0200021680861A5
:104E90002046FFF7D8FE10BD704770B504460D469A
:104EA000164600BF94F83C00012801D1022070BDD5
:104EB000012084F83C0000BF022084F83D000C2E45
:104EC00051D005DC4EB1042E1ED0082E7AD133E02D
:104ED000102E60D0142EF9D175E02946206803F019
:104EE00011F82068806940F0080021688861206816
:104EF000806920F004002168886120688069296940
:104F000008432168886177E02946206803F052F859
:104F10002068806940F400602168886120688069A9
:104F200020F480602168886120688069296940EAEE
:104F30000120216888615FE02946206803F098F825
:104F40002068C06940F008002168C8612068C06915
:104F500020F004002168C8612068C06929690843FD
:104F60002168C86148E02946206803F0DBF8206822
:104F7000C06940F400602168C8612068C06920F4FD
:104F800080602168C8612068C069296940EA012001
:104F90002168C86130E02946206803F0FFF82068E6
:104FA000406D40F00800216848652068406D20F0A1
:104FB0000400216848652068406D2969084321681C
:104FC000486519E017E02946206803F01FF92068BA
:104FD000406D40F40060216848652068406D20F411
:104FE0008060216848652068406D296940EA012099
:104FF0002168486500E000BF00BF012084F83D0043
:1050000000BF002084F83C0000BF00BF4FE710B590
:1050100004460CB9012010BD94F83D0028B90020C9
:1050200084F83C00204600F00DF8022084F83D0092
:10503000211D206802F0F2FE012084F83D000020CE
:10504000E9E7000010B586B0044600BF1F480068BD
:1050500040F001001D4908600846006800F00100AA
:10506000009000BF00BF00BF18480838006840F03B
:1050700001001649083908600846006800F0010080
:10508000009000BF00BF202001900220029001206C
:105090000390032004900120059001A90C48FDF71E
:1050A0007BFA0220019001A90948FDF775FA042056
:1050B000019001A90648FDF76FFA0820019001A9A7
:1050C0000348FDF769FA06B010BD0000E844025835
:1050D000000002587047000030B504460D4601221A
:1050E0002946206802F000FF1249206888420FD04C
:1050F0001149206888420BD010492068884207D0A7
:105100000F492068884203D00E492068884201D1A7
:10511000012000E0002028B12068406C40F40040ED
:10512000216848642068008840F0010021680880F8
:10513000002030BD0000014000040140004001405B
:1051400000440140004801400549884206D1012140
:10515000044A1160C91E024A1268116170470000BA
:10516000B0060024000000247047704710B50446C4
:1051700094F87900212812D12068806800F080001E
:1051800068B12068806820F0800021688860206F06
:1051900010B1206FFCF76CFC204603F0BCF994F8CA
:1051A0007A00222812D12068806800F0400068B19F
:1051B0002068806820F0400021688860606F10B12E
:1051C000606FFCF755FC204603F085F9002010BD08
:1051D000704701460022002391F8792091F87A3037
:1051E00042EA0300704700002DE9F04104462068C0
:1051F000C569206807682068866805F00F08B8F15F
:10520000000F0DD105F0200050B107F0200010B9BB
:1052100006F0805020B1204603F087F9BDE8F08108
:10522000B8F1000F72D05D48304018B907F49070A3
:1052300000287AD005F0010048B107F4807030B141
:10524000012021680862E06F40F00100E06705F08E
:10525000020048B106F0010030B102202168086266
:10526000E06F40F00400E06705F0040048B106F08C
:10527000010030B1042021680862E06F40F00200B4
:10528000E06705F0080078B107F0200028B906F0C3
:10529000805010B906F0010030B108202168086282
:1052A000E06F40F00800E067E06F70B305F02000A9
:1052B00040B107F0200010B906F0805010B1204630
:1052C00003F033F9E06F00F0080020B9206880682F
:1052D00000F0400018B3204603F0FDF82068806815
:1052E00000F04000B8B12068806820F040002168DC
:1052F0008860606F58B12A48616F0865606FFCF77D
:105300005BFC10B1606F016D88470DE00DE0204639
:10531000FFF75EFF08E02046FFF75AFF04E0204653
:10532000FFF756FF0020E06778E705F4801078B1BA
:1053300006F4800060B14FF48010216808622020DC
:1053400084F8790084F87A002046FFF70EFF65E7BD
:1053500005F0800048B107F0800010B906F40000A5
:1053600018B1204603F0F8FD58E705F0400030B1D1
:1053700007F0400018B1204603F0BDF84EE705F4F1
:10538000000040B107F0804028B12068006820F09C
:1053900080402168086000BF40E700000100001065
:1053A0000F84000810B504460CB9012010BDA06997
:1053B00000B100E000BF94F8790028B9002084F81B
:1053C0007800204600F02AF8242084F8790020682C
:1053D000006820F0010021680860204603F0EAF828
:1053E000012800D1E2E7606B10B1204602F060FFB7
:1053F0002068406820F490402168486020688068F8
:1054000020F02A00216888602068006840F00100D0
:1054100021680860204602F0C0FFC7E710B586B0DB
:1054200004466249206888423CD100BF6048006859
:1054300040F001005E4908600846006800F0010085
:10544000009000BF00BF00BF59481030006840F016
:1054500010005749103108600846006800F010003D
:10546000009000BF00BF4FF4007001900220029036
:1054700001200390022004900720059001A94D48C7
:10548000FDF78AF84FF48060019001A94948FDF7C3
:1054900083F82520FDF7FBF9032211462520FDF7AF
:1054A00006FA80E04449206888423CD100BF404869
:1054B000006840F002003E4908600846006800F0BD
:1054C0000200009000BF00BF00BF394808300068EC
:1054D00040F480203649083108600846006800F42E
:1054E0008020009000BF00BF4FF4006001900220B8
:1054F000029001200390022004900720059001A94A
:105500002E48FDF749F84FF48060019001A92B481F
:10551000FDF742F82720FDF7BAF9032202212720E0
:10552000FDF7C5F93FE02649206888423BD100BF1E
:105530001F48006840F001001D49086008460068E7
:1055400000F00100009000BF00BF00BF1848083005
:10555000006840F4002016490831086008460068D9
:1055600000F40020009000BF00BF4FF400600190E5
:105570000220029001200390022004900620059052
:1055800001A90C48FDF708F84FF48050019001A9DB
:105590000848FDF701F83420FDF779F90322114698
:1055A0003420FDF784F906B010BD00000010014062
:1055B000E04402580000025800480040000402582D
:1055C000004C004070B504460E46154694F87A002B
:1055D000202843D106B10DB9012070BD00BF94F859
:1055E0007800012801D10220F7E7012084F8780033
:1055F00000BF6666A4F868500020E067222084F8A7
:105600007A001748616FC8631648616F08641648CE
:10561000616FC8640020616F0865236803F124018D
:105620002B46626E606FFCF705FF00BF002084F818
:10563000780000BF2068006840F48070216808602E
:105640002068806840F001002168886020688068D8
:1056500040F04000216888600020BEE70220BCE7DF
:1056600083840008C98400082784000870477047B5
:10567000704700BFFEE7000010B50022102112485D
:10568000FDF7B8F81048006820F440600E49086043
:105690000846006840F480600860002220210A4823
:1056A000FDF7A8F8022004F0E3FC012210210648CF
:1056B000FDF7A0F8022004F0DBFC002210210248D4
:1056C000FDF798F810BD0000001C025800B587B027
:1056D00000BF1248006840F080001049086008468A
:1056E000006800F08000019000BF00BF30200290F1
:1056F0000120039004900320059002A90848FCF7BC
:105700004BFF012220210648FDF774F801221021E9
:105710000348FDF76FF807B000BD0000E0440258F1
:10572000001C025810B5002210211248FDF762F843
:105730001048006820F440600E4908600846006880
:1057400040F480600860012220210A48FDF752F8E9
:10575000022004F08DFC012210210648FDF74AF8D2
:10576000022004F085FC002210210248FDF742F8D7
:1057700010BD0000001C025870B5054600241848F2
:10578000006820F440601649086008460068086018
:1057900000261AE0002210211148FDF72BF8022004
:1057A00004F066FC012210210D48FDF723F8600685
:1057B000040E20210A48FDF715F808B1601CC4B298
:1057C000012004F055FC701CC6B2082EE2DB15B9AE
:1057D000FFF7A8FF01E0FFF74FFF204670BD000074
:1057E000001C025870B504461C48006820F4406054
:1057F0001A4908600846006840F48060086000228A
:1058000010211648FCF7F6FF002523E0E00928B137
:10581000012220211148FCF7EDFF04E000222021A5
:105820000E48FCF7E7FF6006040E022004F020FC9F
:10583000012210210948FCF7DDFF022004F018FCCA
:10584000002210210548FCF7D5FF022004F010FCCF
:10585000681CC5B2082DD9DB70BD0000001C0258C1
:1058600010B51348006820F44060114908600846EC
:10587000006840F480600860012220210C48FCF799
:10588000B9FF012210210A48FCF7B4FF042004F0FC
:10589000EFFB002220210648FCF7ACFF042004F0B7
:1058A000E7FB002210210248FCF7A4FF10BD000016
:1058B000001C025810B51348006820F440601149DC
:1058C00008600846006840F48060086000221021EB
:1058D0000C48FCF78FFF002220210A48FCF78AFFC2
:1058E000042004F0C5FB012210210648FCF782FFCA
:1058F000012220210348FCF77DFF042004F0B8FBBF
:1059000010BD0000001C025810B5002417480068A4
:1059100020F44060154908600846006808600122CC
:1059200020211248FCF766FF012004F0A1FB0122B0
:1059300010210E48FCF75EFF012004F099FB07E000
:10594000601CC4B2FA2C03DDFFF7B4FF012010BDC8
:1059500020210648FCF746FF0028F1D10022102143
:105960000248FCF747FF0020F1E70000001C025846
:1059700010B50024FFF7AAFE80226B21682000F0FA
:1059800057F9642004F068FB00226B21682000F0C6
:105990004FF9002000F005F9002000F0F9F84FF46D
:1059A000FA7000F027F900223821682000F040F951
:1059B00000226A21682000F03BF9002223216820A0
:1059C00000F036F982223721682000F031F9752184
:1059D000682000F07FF80446712C01D0732C0ED1A2
:1059E00001226B21682000F023F900226C2168203D
:1059F00000F01EF94FF4FA7000F0FCF801E001200D
:105A000010BD00210C2000F065F80446482C0DD193
:105A100001220B210C2000F00BF9322004F01CFBBA
:105A200011220A210C2000F003F901E00120E7E730
:105A30000020E5E72DE9FC4104460D4616466B467D
:105A400006223B21682000F069F80746BFB99DF89F
:105A500001009DF8001040EA012000B220809DF86E
:105A600003009DF8021040EA012000B228809DF852
:105A700005009DF8041040EA012000B2308038464D
:105A8000BDE8FC812DE9FC4104460D4616466B46F7
:105A900006224321682000F041F80746BFB99DF86F
:105AA00001009DF8001040EA012000B220809DF81E
:105AB00003009DF8021040EA012000B228809DF802
:105AC00005009DF8041040EA012000B230803846FD
:105AD000BDE8FC8170B504460D46FFF7C1FE00210C
